{
  "_format": "hh-sol-artifact-1",
  "contractName": "Curios",
  "sourceName": "contracts/Curios.sol",
  "abi": [
    {
      "inputs": [
        {
          "internalType": "address",
          "name": "initialOwner",
          "type": "address"
        }
      ],
      "stateMutability": "nonpayable",
      "type": "constructor"
    },
    {
      "inputs": [
        {
          "internalType": "address",
          "name": "owner",
          "type": "address"
        }
      ],
      "name": "OwnableInvalidOwner",
      "type": "error"
    },
    {
      "inputs": [
        {
          "internalType": "address",
          "name": "account",
          "type": "address"
        }
      ],
      "name": "OwnableUnauthorizedAccount",
      "type": "error"
    },
    {
      "anonymous": false,
      "inputs": [
        {
          "indexed": true,
          "internalType": "address",
          "name": "previousOwner",
          "type": "address"
        },
        {
          "indexed": true,
          "internalType": "address",
          "name": "newOwner",
          "type": "address"
        }
      ],
      "name": "OwnershipTransferred",
      "type": "event"
    },
    {
      "anonymous": false,
      "inputs": [
        {
          "indexed": true,
          "internalType": "address",
          "name": "_tokenAddress",
          "type": "address"
        },
        {
          "indexed": true,
          "internalType": "uint256",
          "name": "_questIndex",
          "type": "uint256"
        },
        {
          "indexed": true,
          "internalType": "address",
          "name": "_winner",
          "type": "address"
        }
      ],
      "name": "QuestCompleted",
      "type": "event"
    },
    {
      "anonymous": false,
      "inputs": [
        {
          "indexed": true,
          "internalType": "address",
          "name": "_tokenAddress",
          "type": "address"
        },
        {
          "indexed": true,
          "internalType": "uint256",
          "name": "_questIndex",
          "type": "uint256"
        },
        {
          "indexed": false,
          "internalType": "enum Curios.QuestType",
          "name": "questType",
          "type": "uint8"
        }
      ],
      "name": "QuestCreated",
      "type": "event"
    },
    {
      "anonymous": false,
      "inputs": [
        {
          "indexed": true,
          "internalType": "address",
          "name": "_tokenAddress",
          "type": "address"
        },
        {
          "indexed": true,
          "internalType": "uint256",
          "name": "_questIndex",
          "type": "uint256"
        }
      ],
      "name": "QuestInvalidated",
      "type": "event"
    },
    {
      "anonymous": false,
      "inputs": [
        {
          "indexed": true,
          "internalType": "address",
          "name": "_tokenAddress",
          "type": "address"
        },
        {
          "indexed": true,
          "internalType": "uint256",
          "name": "_questIndex",
          "type": "uint256"
        },
        {
          "indexed": true,
          "internalType": "address",
          "name": "_claimer",
          "type": "address"
        }
      ],
      "name": "RewardClaimed",
      "type": "event"
    },
    {
      "inputs": [
        {
          "internalType": "address",
          "name": "_tokenAddress",
          "type": "address"
        },
        {
          "internalType": "uint256",
          "name": "_questIndex",
          "type": "uint256"
        }
      ],
      "name": "claimReward",
      "outputs": [],
      "stateMutability": "nonpayable",
      "type": "function"
    },
    {
      "inputs": [
        {
          "internalType": "address",
          "name": "_tokenAddress",
          "type": "address"
        },
        {
          "internalType": "string",
          "name": "_name",
          "type": "string"
        },
        {
          "internalType": "string",
          "name": "_hint",
          "type": "string"
        },
        {
          "internalType": "uint256",
          "name": "_maxWinners",
          "type": "uint256"
        },
        {
          "internalType": "bytes32",
          "name": "_merkleRoot",
          "type": "bytes32"
        },
        {
          "internalType": "string",
          "name": "_merkleBody",
          "type": "string"
        },
        {
          "internalType": "string",
          "name": "_metadata",
          "type": "string"
        },
        {
          "internalType": "enum Curios.QuestType",
          "name": "_questType",
          "type": "uint8"
        },
        {
          "internalType": "uint256",
          "name": "_requiredScore",
          "type": "uint256"
        },
        {
          "internalType": "uint256",
          "name": "_rewardAmount",
          "type": "uint256"
        }
      ],
      "name": "createQuest",
      "outputs": [],
      "stateMutability": "payable",
      "type": "function"
    },
    {
      "inputs": [
        {
          "internalType": "address",
          "name": "_tokenAddress",
          "type": "address"
        },
        {
          "internalType": "uint256",
          "name": "_questIndex",
          "type": "uint256"
        }
      ],
      "name": "invalidateQuest",
      "outputs": [],
      "stateMutability": "nonpayable",
      "type": "function"
    },
    {
      "inputs": [],
      "name": "owner",
      "outputs": [
        {
          "internalType": "address",
          "name": "",
          "type": "address"
        }
      ],
      "stateMutability": "view",
      "type": "function"
    },
    {
      "inputs": [
        {
          "internalType": "address",
          "name": "",
          "type": "address"
        },
        {
          "internalType": "uint256",
          "name": "",
          "type": "uint256"
        }
      ],
      "name": "quests",
      "outputs": [
        {
          "internalType": "address",
          "name": "creator",
          "type": "address"
        },
        {
          "internalType": "uint256",
          "name": "index",
          "type": "uint256"
        },
        {
          "internalType": "enum Curios.QuestType",
          "name": "questType",
          "type": "uint8"
        },
        {
          "internalType": "string",
          "name": "name",
          "type": "string"
        },
        {
          "internalType": "string",
          "name": "hint",
          "type": "string"
        },
        {
          "internalType": "bytes32",
          "name": "merkleRoot",
          "type": "bytes32"
        },
        {
          "internalType": "string",
          "name": "merkleBody",
          "type": "string"
        },
        {
          "internalType": "uint256",
          "name": "maxWinners",
          "type": "uint256"
        },
        {
          "internalType": "string",
          "name": "metadata",
          "type": "string"
        },
        {
          "internalType": "bool",
          "name": "valid",
          "type": "bool"
        },
        {
          "internalType": "uint256",
          "name": "requiredScore",
          "type": "uint256"
        },
        {
          "internalType": "uint256",
          "name": "rewardAmount",
          "type": "uint256"
        }
      ],
      "stateMutability": "view",
      "type": "function"
    },
    {
      "inputs": [],
      "name": "renounceOwnership",
      "outputs": [],
      "stateMutability": "nonpayable",
      "type": "function"
    },
    {
      "inputs": [
        {
          "internalType": "address",
          "name": "_tokenAddress",
          "type": "address"
        },
        {
          "internalType": "uint256",
          "name": "_questIndex",
          "type": "uint256"
        },
        {
          "internalType": "bytes32[]",
          "name": "_proof",
          "type": "bytes32[]"
        },
        {
          "internalType": "bytes32",
          "name": "_answer",
          "type": "bytes32"
        }
      ],
      "name": "submitProof",
      "outputs": [],
      "stateMutability": "nonpayable",
      "type": "function"
    },
    {
      "inputs": [
        {
          "internalType": "address",
          "name": "_tokenAddress",
          "type": "address"
        },
        {
          "internalType": "uint256",
          "name": "_questIndex",
          "type": "uint256"
        },
        {
          "internalType": "uint256",
          "name": "_score",
          "type": "uint256"
        }
      ],
      "name": "submitScore",
      "outputs": [],
      "stateMutability": "nonpayable",
      "type": "function"
    },
    {
      "inputs": [
        {
          "internalType": "address",
          "name": "newOwner",
          "type": "address"
        }
      ],
      "name": "transferOwnership",
      "outputs": [],
      "stateMutability": "nonpayable",
      "type": "function"
    },
    {
      "inputs": [
        {
          "internalType": "address",
          "name": "",
          "type": "address"
        },
        {
          "internalType": "uint256",
          "name": "",
          "type": "uint256"
        },
        {
          "internalType": "address",
          "name": "",
          "type": "address"
        }
      ],
      "name": "winners",
      "outputs": [
        {
          "internalType": "bool",
          "name": "",
          "type": "bool"
        }
      ],
      "stateMutability": "view",
      "type": "function"
    },
    {
      "inputs": [],
      "name": "withdraw",
      "outputs": [],
      "stateMutability": "nonpayable",
      "type": "function"
    },
    {
      "stateMutability": "payable",
      "type": "receive"
    }
  ],
  "bytecode": "0x60806040523480156200001157600080fd5b5060405162001e3e38038062001e3e8339810160408190526200003491620000c7565b806001600160a01b0381166200006457604051631e4fbdf760e01b81526000600482015260240160405180910390fd5b6200006f8162000077565b5050620000f9565b600080546001600160a01b038381166001600160a01b0319831681178455604051919092169283917f8be0079c531659141344cd1fd0a4f28419497f9722a3daafe3b4186f6b6457e09190a35050565b600060208284031215620000da57600080fd5b81516001600160a01b0381168114620000f257600080fd5b9392505050565b611d3580620001096000396000f3fe6080604052600436106100c05760003560e01c806349d908fd11610074578063951372a31161004e578063951372a3146101f6578063c1fd9d711461022e578063f2fde38b1461024e57600080fd5b806349d908fd1461018c578063715018a6146101ac5780638da5cb5b146101c157600080fd5b806336018084116100a5578063360180841461010e5780633ccfd60b1461012157806348ae323c1461013657600080fd5b80630c07df77146100cc578063174e31c4146100ee57600080fd5b366100c757005b600080fd5b3480156100d857600080fd5b506100ec6100e736600461159b565b61026e565b005b3480156100fa57600080fd5b506100ec61010936600461159b565b61043f565b6100ec61011c3660046116e0565b61066c565b34801561012d57600080fd5b506100ec6108b5565b34801561014257600080fd5b506101776101513660046117d7565b600260209081526000938452604080852082529284528284209052825290205460ff1681565b60405190151581526020015b60405180910390f35b34801561019857600080fd5b506100ec6101a7366004611813565b610907565b3480156101b857600080fd5b506100ec610d48565b3480156101cd57600080fd5b5060005460405173ffffffffffffffffffffffffffffffffffffffff9091168152602001610183565b34801561020257600080fd5b5061021661021136600461159b565b610d5c565b6040516101839c9b9a99989796959493929190611914565b34801561023a57600080fd5b506100ec6102493660046119c8565b611016565b34801561025a57600080fd5b506100ec610269366004611a90565b6113bc565b73ffffffffffffffffffffffffffffffffffffffff821660009081526001602052604081208054839081106102a5576102a5611aab565b60009182526020909120600d90910201805490915073ffffffffffffffffffffffffffffffffffffffff163314806102f4575060005473ffffffffffffffffffffffffffffffffffffffff1633145b61035f576040517f08c379a000000000000000000000000000000000000000000000000000000000815260206004820152600e60248201527f4e6f7420617574686f72697a656400000000000000000000000000000000000060448201526064015b60405180910390fd5b600981015460ff166103cd576040517f08c379a000000000000000000000000000000000000000000000000000000000815260206004820152601960248201527f517565737420616c726561647920696e76616c696461746564000000000000006044820152606401610356565b6009810180547fffffffffffffffffffffffffffffffffffffffffffffffffffffffffffffff00169055604051829073ffffffffffffffffffffffffffffffffffffffff8516907ff04a659fa6b17ea0d3b283dc739b635408d53cd5508bf48de95c3958e573756b90600090a3505050565b73ffffffffffffffffffffffffffffffffffffffff8216600090815260016020526040812080548390811061047657610476611aab565b6000918252602080832073ffffffffffffffffffffffffffffffffffffffff871684526002825260408085208786528352808520338652909252922054600d909102909101915060ff16610526576040517f08c379a000000000000000000000000000000000000000000000000000000000815260206004820152600c60248201527f4e6f7420612077696e6e657200000000000000000000000000000000000000006044820152606401610356565b80600c0154471015610594576040517f08c379a000000000000000000000000000000000000000000000000000000000815260206004820152601d60248201527f496e73756666696369656e7420636f6e74726163742062616c616e63650000006044820152606401610356565b73ffffffffffffffffffffffffffffffffffffffff83166000908152600260209081526040808320858452825280832033808552925280832080547fffffffffffffffffffffffffffffffffffffffffffffffffffffffffffffff00169055600c8401549051919281156108fc029290818181858888f19350505050158015610621573d6000803e3d6000fd5b506040513390839073ffffffffffffffffffffffffffffffffffffffff8616907ff80b6d248ca65e589d3f24c7ce36e2df22ba16ba4e7656aad67e114abbe971d290600090a4505050565b61067461141d565b61067e8782611b09565b34101561070d576040517f08c379a000000000000000000000000000000000000000000000000000000000815260206004820152602260248201527f496e73756666696369656e7420457468657220746f2066756e6420726577617260448201527f64730000000000000000000000000000000000000000000000000000000000006064820152608401610356565b73ffffffffffffffffffffffffffffffffffffffff8a16600081815260016020818152604083208054808401808355918552918420948452600d909102909301926107589190611b20565b82547fffffffffffffffffffffffff000000000000000000000000000000000000000016331783556001808401829055600284018054929350879290917fffffffffffffffffffffffffffffffffffffffffffffffffffffffffffffff009091169083818111156107cb576107cb611846565b0217905550600382016107de8c82611bd7565b50600482016107ed8b82611bd7565b5060058201889055600682016108038882611bd7565b5060078201899055600882016108198782611bd7565b506009820180547fffffffffffffffffffffffffffffffffffffffffffffffffffffffffffffff00166001179055600b8201849055600c8201839055604051819073ffffffffffffffffffffffffffffffffffffffff8e16907f99842d711b56aa43feb8fa2be98c713b1d9dcef8efc1554a11ea45a67ce9ac3c9061089f908990611cf1565b60405180910390a3505050505050505050505050565b6108bd61141d565b6000805460405173ffffffffffffffffffffffffffffffffffffffff909116914780156108fc02929091818181858888f19350505050158015610904573d6000803e3d6000fd5b50565b73ffffffffffffffffffffffffffffffffffffffff8316600090815260016020526040812080548490811061093e5761093e611aab565b60009182526020909120600d90910201600981015490915060ff166109bf576040517f08c379a000000000000000000000000000000000000000000000000000000000815260206004820152601260248201527f5175657374206973206e6f742076616c696400000000000000000000000000006044820152606401610356565b6001600282015460ff1660018111156109da576109da611846565b14610a41576040517f08c379a000000000000000000000000000000000000000000000000000000000815260206004820152601260248201527f496e76616c6964207175657374207479706500000000000000000000000000006044820152606401610356565b80600b0154821015610aaf576040517f08c379a000000000000000000000000000000000000000000000000000000000815260206004820152601060248201527f53636f726520697320746f6f206c6f77000000000000000000000000000000006044820152606401610356565b6007810154600a8201541080610ac757506007810154155b610b2d576040517f08c379a000000000000000000000000000000000000000000000000000000000815260206004820152601360248201527f4d61782077696e6e6572732072656163686564000000000000000000000000006044820152606401610356565b805473ffffffffffffffffffffffffffffffffffffffff163303610bd3576040517f08c379a000000000000000000000000000000000000000000000000000000000815260206004820152602260248201527f43726561746f722063616e6e6f742077696e207468656972206f776e2071756560448201527f73740000000000000000000000000000000000000000000000000000000000006064820152608401610356565b73ffffffffffffffffffffffffffffffffffffffff84166000908152600260209081526040808320868452825280832033845290915290205460ff1615610c76576040517f08c379a000000000000000000000000000000000000000000000000000000000815260206004820152600f60248201527f416c726561647920636c61696d656400000000000000000000000000000000006044820152606401610356565b73ffffffffffffffffffffffffffffffffffffffff8416600081815260026020908152604080832087845282528083203380855290835281842080547fffffffffffffffffffffffffffffffffffffffffffffffffffffffffffffff00166001908117909155600a870180549182018155855292842090920180547fffffffffffffffffffffffff00000000000000000000000000000000000000001683179055519092869290917fe97fb11f0e59fadbecf21716a4f420924944402a59ab574cbb3ef6185cd733a69190a450505050565b610d5061141d565b610d5a6000611470565b565b60016020528160005260406000208181548110610d7857600080fd5b60009182526020909120600d9091020180546001820154600283015460038401805473ffffffffffffffffffffffffffffffffffffffff909416965091945060ff169291610dc590611b33565b80601f0160208091040260200160405190810160405280929190818152602001828054610df190611b33565b8015610e3e5780601f10610e1357610100808354040283529160200191610e3e565b820191906000526020600020905b815481529060010190602001808311610e2157829003601f168201915b505050505090806004018054610e5390611b33565b80601f0160208091040260200160405190810160405280929190818152602001828054610e7f90611b33565b8015610ecc5780601f10610ea157610100808354040283529160200191610ecc565b820191906000526020600020905b815481529060010190602001808311610eaf57829003601f168201915b505050505090806005015490806006018054610ee790611b33565b80601f0160208091040260200160405190810160405280929190818152602001828054610f1390611b33565b8015610f605780601f10610f3557610100808354040283529160200191610f60565b820191906000526020600020905b815481529060010190602001808311610f4357829003601f168201915b505050505090806007015490806008018054610f7b90611b33565b80601f0160208091040260200160405190810160405280929190818152602001828054610fa790611b33565b8015610ff45780601f10610fc957610100808354040283529160200191610ff4565b820191906000526020600020905b815481529060010190602001808311610fd757829003601f168201915b505050506009830154600b840154600c90940154929360ff909116929091508c565b73ffffffffffffffffffffffffffffffffffffffff8416600090815260016020526040812080548590811061104d5761104d611aab565b60009182526020909120600d90910201600981015490915060ff166110ce576040517f08c379a000000000000000000000000000000000000000000000000000000000815260206004820152601260248201527f5175657374206973206e6f742076616c696400000000000000000000000000006044820152606401610356565b6000600282015460ff1660018111156110e9576110e9611846565b14611150576040517f08c379a000000000000000000000000000000000000000000000000000000000815260206004820152601260248201527f496e76616c6964207175657374207479706500000000000000000000000000006044820152606401610356565b6007810154600a820154108061116857506007810154155b6111ce576040517f08c379a000000000000000000000000000000000000000000000000000000000815260206004820152601360248201527f4d61782077696e6e6572732072656163686564000000000000000000000000006044820152606401610356565b805473ffffffffffffffffffffffffffffffffffffffff163303611274576040517f08c379a000000000000000000000000000000000000000000000000000000000815260206004820152602260248201527f43726561746f722063616e6e6f742077696e207468656972206f776e2071756560448201527f73740000000000000000000000000000000000000000000000000000000000006064820152608401610356565b611283838260050154846114e5565b6112e9576040517f08c379a000000000000000000000000000000000000000000000000000000000815260206004820152601460248201527f496e76616c6964204d65726b6c652070726f6f660000000000000000000000006044820152606401610356565b73ffffffffffffffffffffffffffffffffffffffff8516600081815260026020908152604080832088845282528083203380855290835281842080547fffffffffffffffffffffffffffffffffffffffffffffffffffffffffffffff00166001908117909155600a870180549182018155855292842090920180547fffffffffffffffffffffffff00000000000000000000000000000000000000001683179055519092879290917fe97fb11f0e59fadbecf21716a4f420924944402a59ab574cbb3ef6185cd733a69190a45050505050565b6113c461141d565b73ffffffffffffffffffffffffffffffffffffffff8116611414576040517f1e4fbdf700000000000000000000000000000000000000000000000000000000815260006004820152602401610356565b61090481611470565b60005473ffffffffffffffffffffffffffffffffffffffff163314610d5a576040517f118cdaa7000000000000000000000000000000000000000000000000000000008152336004820152602401610356565b6000805473ffffffffffffffffffffffffffffffffffffffff8381167fffffffffffffffffffffffff0000000000000000000000000000000000000000831681178455604051919092169283917f8be0079c531659141344cd1fd0a4f28419497f9722a3daafe3b4186f6b6457e09190a35050565b6000826114f285846114fb565b14949350505050565b600081815b84518110156115365761152c8286838151811061151f5761151f611aab565b6020026020010151611540565b9150600101611500565b5090505b92915050565b600081831061155c57600082815260208490526040902061156b565b60008381526020839052604090205b9392505050565b803573ffffffffffffffffffffffffffffffffffffffff8116811461159657600080fd5b919050565b600080604083850312156115ae57600080fd5b6115b783611572565b946020939093013593505050565b7f4e487b7100000000000000000000000000000000000000000000000000000000600052604160045260246000fd5b604051601f82017fffffffffffffffffffffffffffffffffffffffffffffffffffffffffffffffe016810167ffffffffffffffff8111828210171561163b5761163b6115c5565b604052919050565b600082601f83011261165457600080fd5b813567ffffffffffffffff81111561166e5761166e6115c5565b61169f60207fffffffffffffffffffffffffffffffffffffffffffffffffffffffffffffffe0601f840116016115f4565b8181528460208386010111156116b457600080fd5b816020850160208301376000918101602001919091529392505050565b80356002811061159657600080fd5b6000806000806000806000806000806101408b8d03121561170057600080fd5b6117098b611572565b995060208b013567ffffffffffffffff8082111561172657600080fd5b6117328e838f01611643565b9a5060408d013591508082111561174857600080fd5b6117548e838f01611643565b995060608d0135985060808d0135975060a08d013591508082111561177857600080fd5b6117848e838f01611643565b965060c08d013591508082111561179a57600080fd5b506117a78d828e01611643565b9450506117b660e08c016116d1565b92506101008b013591506101208b013590509295989b9194979a5092959850565b6000806000606084860312156117ec57600080fd5b6117f584611572565b92506020840135915061180a60408501611572565b90509250925092565b60008060006060848603121561182857600080fd5b61183184611572565b95602085013595506040909401359392505050565b7f4e487b7100000000000000000000000000000000000000000000000000000000600052602160045260246000fd5b600281106118ac577f4e487b7100000000000000000000000000000000000000000000000000000000600052602160045260246000fd5b9052565b6000815180845260005b818110156118d6576020818501810151868301820152016118ba565b5060006020828601015260207fffffffffffffffffffffffffffffffffffffffffffffffffffffffffffffffe0601f83011685010191505092915050565b600061018073ffffffffffffffffffffffffffffffffffffffff8f1683528d6020840152611945604084018e611875565b8060608401526119578184018d6118b0565b9050828103608084015261196b818c6118b0565b90508960a084015282810360c0840152611985818a6118b0565b90508760e08401528281036101008401526119a081886118b0565b9515156101208401525050610140810192909252610160909101529998505050505050505050565b600080600080608085870312156119de57600080fd5b6119e785611572565b93506020808601359350604086013567ffffffffffffffff80821115611a0c57600080fd5b818801915088601f830112611a2057600080fd5b813581811115611a3257611a326115c5565b8060051b9150611a438483016115f4565b818152918301840191848101908b841115611a5d57600080fd5b938501935b83851015611a7b57843582529385019390850190611a62565b989b979a509798606001359750505050505050565b600060208284031215611aa257600080fd5b61156b82611572565b7f4e487b7100000000000000000000000000000000000000000000000000000000600052603260045260246000fd5b7f4e487b7100000000000000000000000000000000000000000000000000000000600052601160045260246000fd5b808202811582820484141761153a5761153a611ada565b8181038181111561153a5761153a611ada565b600181811c90821680611b4757607f821691505b602082108103611b80577f4e487b7100000000000000000000000000000000000000000000000000000000600052602260045260246000fd5b50919050565b601f821115611bd2576000816000526020600020601f850160051c81016020861015611baf5750805b601f850160051c820191505b81811015611bce57828155600101611bbb565b5050505b505050565b815167ffffffffffffffff811115611bf157611bf16115c5565b611c0581611bff8454611b33565b84611b86565b602080601f831160018114611c585760008415611c225750858301515b7fffffffffffffffffffffffffffffffffffffffffffffffffffffffffffffffff600386901b1c1916600185901b178555611bce565b6000858152602081207fffffffffffffffffffffffffffffffffffffffffffffffffffffffffffffffe08616915b82811015611ca557888601518255948401946001909101908401611c86565b5085821015611ce157878501517fffffffffffffffffffffffffffffffffffffffffffffffffffffffffffffffff600388901b60f8161c191681555b5050505050600190811b01905550565b6020810161153a828461187556fea26469706673582212202b8f7f59aefe8d6cfb740dd017da52d7a6a21f67fade36c7d82104f37f3f0fc964736f6c63430008180033",
  "linkReferences": {},
  "deployedLinkReferences": {}
}